{
  "contractName": "dBank",
  "abi": [
    {
      "inputs": [
        {
          "internalType": "contract Token",
          "name": "_token",
          "type": "address"
        }
      ],
      "stateMutability": "nonpayable",
      "type": "constructor"
    },
    {
      "anonymous": false,
      "inputs": [
        {
          "indexed": true,
          "internalType": "address",
          "name": "user",
          "type": "address"
        },
        {
          "indexed": false,
          "internalType": "uint256",
          "name": "collateralEtherAmount",
          "type": "uint256"
        },
        {
          "indexed": false,
          "internalType": "uint256",
          "name": "borrowedTokenAmount",
          "type": "uint256"
        }
      ],
      "name": "Borrow",
      "type": "event"
    },
    {
      "anonymous": false,
      "inputs": [
        {
          "indexed": true,
          "internalType": "address",
          "name": "user",
          "type": "address"
        },
        {
          "indexed": false,
          "internalType": "uint256",
          "name": "etherAmount",
          "type": "uint256"
        },
        {
          "indexed": false,
          "internalType": "uint256",
          "name": "timeStart",
          "type": "uint256"
        }
      ],
      "name": "Deposit",
      "type": "event"
    },
    {
      "anonymous": false,
      "inputs": [
        {
          "indexed": true,
          "internalType": "address",
          "name": "user",
          "type": "address"
        },
        {
          "indexed": false,
          "internalType": "uint256",
          "name": "fee",
          "type": "uint256"
        }
      ],
      "name": "PayOff",
      "type": "event"
    },
    {
      "anonymous": false,
      "inputs": [
        {
          "indexed": true,
          "internalType": "address",
          "name": "user",
          "type": "address"
        },
        {
          "indexed": false,
          "internalType": "uint256",
          "name": "etherAmount",
          "type": "uint256"
        },
        {
          "indexed": false,
          "internalType": "uint256",
          "name": "depositTime",
          "type": "uint256"
        },
        {
          "indexed": false,
          "internalType": "uint256",
          "name": "interest",
          "type": "uint256"
        }
      ],
      "name": "Withdraw",
      "type": "event"
    },
    {
      "inputs": [
        {
          "internalType": "address",
          "name": "",
          "type": "address"
        }
      ],
      "name": "collateralEther",
      "outputs": [
        {
          "internalType": "uint256",
          "name": "",
          "type": "uint256"
        }
      ],
      "stateMutability": "view",
      "type": "function"
    },
    {
      "inputs": [
        {
          "internalType": "address",
          "name": "",
          "type": "address"
        }
      ],
      "name": "depositStart",
      "outputs": [
        {
          "internalType": "uint256",
          "name": "",
          "type": "uint256"
        }
      ],
      "stateMutability": "view",
      "type": "function"
    },
    {
      "inputs": [
        {
          "internalType": "address",
          "name": "",
          "type": "address"
        }
      ],
      "name": "etherBalanceOf",
      "outputs": [
        {
          "internalType": "uint256",
          "name": "",
          "type": "uint256"
        }
      ],
      "stateMutability": "view",
      "type": "function"
    },
    {
      "inputs": [
        {
          "internalType": "address",
          "name": "",
          "type": "address"
        }
      ],
      "name": "isBorrowed",
      "outputs": [
        {
          "internalType": "bool",
          "name": "",
          "type": "bool"
        }
      ],
      "stateMutability": "view",
      "type": "function"
    },
    {
      "inputs": [
        {
          "internalType": "address",
          "name": "",
          "type": "address"
        }
      ],
      "name": "isDeposited",
      "outputs": [
        {
          "internalType": "bool",
          "name": "",
          "type": "bool"
        }
      ],
      "stateMutability": "view",
      "type": "function"
    },
    {
      "inputs": [],
      "name": "deposit",
      "outputs": [],
      "stateMutability": "payable",
      "type": "function"
    }
  ],
  "bytecode": "0x608060405234801561001057600080fd5b506040516106b53803806106b58339818101604052602081101561003357600080fd5b8101908080519060200190929190505050806000806101000a81548173ffffffffffffffffffffffffffffffffffffffff021916908373ffffffffffffffffffffffffffffffffffffffff16021790555050610621806100946000396000f3fe6080604052600436106100555760003560e01c8063179fc99f1461005a57806373732024146100bf57806375a40d2a14610126578063cdebd9321461018b578063d0e30db0146101f2578063ff87930a146101fc575b600080fd5b34801561006657600080fd5b506100a96004803603602081101561007d57600080fd5b81019080803573ffffffffffffffffffffffffffffffffffffffff169060200190929190505050610261565b6040518082815260200191505060405180910390f35b3480156100cb57600080fd5b5061010e600480360360208110156100e257600080fd5b81019080803573ffffffffffffffffffffffffffffffffffffffff169060200190929190505050610279565b60405180821515815260200191505060405180910390f35b34801561013257600080fd5b506101756004803603602081101561014957600080fd5b81019080803573ffffffffffffffffffffffffffffffffffffffff169060200190929190505050610299565b6040518082815260200191505060405180910390f35b34801561019757600080fd5b506101da600480360360208110156101ae57600080fd5b81019080803573ffffffffffffffffffffffffffffffffffffffff1690602001909291905050506102b1565b60405180821515815260200191505060405180910390f35b6101fa6102d1565b005b34801561020857600080fd5b5061024b6004803603602081101561021f57600080fd5b81019080803573ffffffffffffffffffffffffffffffffffffffff1690602001909291905050506105b1565b6040518082815260200191505060405180910390f35b60026020528060005260406000206000915090505481565b60046020528060005260406000206000915054906101000a900460ff1681565b60036020528060005260406000206000915090505481565b60056020528060005260406000206000915054906101000a900460ff1681565b60001515600460003373ffffffffffffffffffffffffffffffffffffffff1673ffffffffffffffffffffffffffffffffffffffff16815260200190815260200160002060009054906101000a900460ff16151514610397576040517f08c379a000000000000000000000000000000000000000000000000000000000815260040180806020018281038252601d8152602001807f4572726f722c206465706f73697420616c72656164792061637469766500000081525060200191505060405180910390fd5b662386f26fc100003410156103f7576040517f08c379a00000000000000000000000000000000000000000000000000000000081526004018080602001828103825260228152602001806105ca6022913960400191505060405180910390fd5b34600260003373ffffffffffffffffffffffffffffffffffffffff1673ffffffffffffffffffffffffffffffffffffffff1681526020019081526020016000205401600260003373ffffffffffffffffffffffffffffffffffffffff1673ffffffffffffffffffffffffffffffffffffffff1681526020019081526020016000208190555042600160003373ffffffffffffffffffffffffffffffffffffffff1673ffffffffffffffffffffffffffffffffffffffff1681526020019081526020016000205401600160003373ffffffffffffffffffffffffffffffffffffffff1673ffffffffffffffffffffffffffffffffffffffff168152602001908152602001600020819055506001600460003373ffffffffffffffffffffffffffffffffffffffff1673ffffffffffffffffffffffffffffffffffffffff16815260200190815260200160002060006101000a81548160ff0219169083151502179055503373ffffffffffffffffffffffffffffffffffffffff167f90890809c654f11d6e72a28fa60149770a0d11ec6c92319d6ceb2bb0a4ea1a153442604051808381526020018281526020019250505060405180910390a2565b6001602052806000526040600020600091509050548156fe4572726f722c206465706f736974206d757374206265203e3d20302e303120455448a26469706673582212201f3fdfd12f15fbae4fd8ed16d279f6e06488781c19365f50c9de255b543fd8e664736f6c63430007060033",
  "immutableReferences": {},
  "source": "// SPDX-License-Identifier: MIT\r\npragma solidity >=0.6.0 <0.8.0;\r\n\r\nimport \"./Token.sol\";\r\n\r\ncontract dBank {\r\n\r\n  Token private token;\r\n\r\n  mapping(address => uint) public depositStart;\r\n  mapping(address => uint) public etherBalanceOf;\r\n  mapping(address => uint) public collateralEther;\r\n  mapping(address => bool) public isDeposited;\r\n  mapping(address => bool) public isBorrowed;\r\n\r\n  event Deposit(address indexed user, uint etherAmount, uint timeStart);\r\n  event Withdraw(address indexed user, uint etherAmount, uint depositTime, uint interest);\r\n  event Borrow(address indexed user, uint collateralEtherAmount, uint borrowedTokenAmount);\r\n  event PayOff(address indexed user, uint fee);\r\n\r\n  constructor(Token _token) public {\r\n    token = _token;\r\n  }\r\n\r\n  function deposit() payable public {\r\n    //Check if msg.sender didn't already deposited funds\r\n    require(isDeposited[msg.sender] == false, 'Error, deposit already active');\r\n    \r\n    //Check if msg.value is >= than 0.01 ETH\r\n    require(msg.value>=1e16, 'Error, deposit must be >= 0.01 ETH');\r\n\r\n    //Increase msg.sender ether deposit balance\r\n    etherBalanceOf[msg.sender] = etherBalanceOf[msg.sender] + msg.value;\r\n    \r\n    //Deposit start time required to calculate holding time\r\n    depositStart[msg.sender] = depositStart[msg.sender] + block.timestamp;\r\n    \r\n    //Set msg.sender deposit status to true\r\n    isDeposited[msg.sender] = true; //activate deposit status\r\n\r\n    //Emit Deposit event\r\n    emit Deposit(msg.sender, msg.value, block.timestamp);\r\n  }\r\n\r\n\r\n//   function withdraw() public {\r\n    \r\n//     //check if msg.sender deposit status is true\r\n//     require(isDeposited[msg.sender]==true, 'Error, no previous deposit');\r\n\r\n//     //assign msg.sender ether deposit balance to variable for event\r\n//     uint userBalance = etherBalanceOf[msg.sender]; \r\n\r\n//     //check user's token hold time\r\n//     uint depositTime = block.timestamp - depositStart[msg.sender];\r\n\r\n//     //calculate interest per second & accrued interest\r\n//     //31668017 - interest(10% APY) per second for min. deposit amount (0.01 ETH), cuz:\r\n//     //1e15(10% of 0.01 ETH) / 31577600 (seconds in 365.25 days)\r\n//     //(etherBalanceOf[msg.sender] / 1e16) - calc. how much higher interest will be (based on deposit), e.g.:\r\n//     //For min. deposit (0.01 ETH), (etherBalanceOf[msg.sender] / 1e16) = 1 (the same, 31668017/s)\r\n//     //For deposit 0.02 ETH, (etherBalanceOf[msg.sender] / 1e16) = 2 (doubled, (2*31668017)/s)\r\n//     uint interestPerSecond = 31668017 * (etherBalanceOf[msg.sender] / 1e16);\r\n//     uint interest = interestPerSecond * depositTime;\r\n\r\n//     //Send ETH back to user\r\n//     msg.sender.transfer(etherBalanceOf[msg.sender]); \r\n     \r\n//     //Send interest in tokens to user\r\n//     token.mint(msg.sender, interest);\r\n\r\n//     //Reset depositers data\r\n//     etherBalanceOf[msg.sender] = 0;\r\n//     depositStart[msg.sender] = 0;\r\n//     isDeposited[msg.sender] = false;\r\n\r\n//     //Emit event\r\n//     emit Withdraw(msg.sender, userBalance, depositTime, interest);\r\n//   }\r\n\r\n//   function borrow() payable public {\r\n\r\n//     //Check if collateral is >= than 0.01 ETH\r\n//     require(msg.value>=1e16, 'Error, collateral must be >= 0.01 ETH');\r\n\r\n//     //Check if user doesn't have active loan\r\n//     require(isBorrowed[msg.sender] == false, 'Error, loan already taken');\r\n\r\n//     //This Ether is locked until user payOff the loan\r\n//     collateralEther[msg.sender] = collateralEther[msg.sender] + msg.value;\r\n\r\n//     //Calc tokens amount to mint, 50% of msg.value\r\n//     uint tokensToMint = collateralEther[msg.sender] / 2;\r\n\r\n//     //Mint & send tokens to user\r\n//     token.mint(msg.sender, tokensToMint);\r\n\r\n//     //Change borrower's loan status to true\r\n//     isBorrowed[msg.sender] = true;\r\n\r\n//     //Emit event\r\n//     emit Borrow(msg.sender, collateralEther[msg.sender], tokensToMint); \r\n//   }\r\n\r\n//   function payOff() public {\r\n//     //Check if loan is active\r\n//     require(isBorrowed[msg.sender] == true, 'Error, loan not active');\r\n\r\n//     //Transfer tokens from user back to the contract\r\n//     require(token.transferFrom(msg.sender, address(this), collateralEther[msg.sender]/2), \"Error, can't receive tokens\"); //must approve dBank 1st\r\n\r\n//     //Calculate fee\r\n//     uint fee = collateralEther[msg.sender]/10; //calc 10% fee\r\n\r\n//     //Send user's collateral minus fee\r\n//     msg.sender.transfer(collateralEther[msg.sender]-fee);\r\n\r\n//     //Reset borrower's data\r\n//     collateralEther[msg.sender] = 0;\r\n//     isBorrowed[msg.sender] = false;\r\n\r\n//     //Emit event\r\n//     emit PayOff(msg.sender, fee);\r\n//   }\r\n}",
  "sourcePath": "C:\\Users\\Ashley\\OneDrive\\Coding\\Dissertation Code\\Dbank\\src\\contracts\\dBank.sol",
  "compiler": {
    "name": "solc",
    "version": "0.7.6+commit.7338295f.Emscripten.clang"
  },
  "schemaVersion": "3.4.3",
  "updatedAt": "2021-08-23T14:25:20.291Z",
  "devdoc": {
    "kind": "dev",
    "methods": {},
    "version": 1
  },
  "userdoc": {
    "kind": "user",
    "methods": {},
    "version": 1
  }
}